:030000000209BA38
:0C09BA00787FE4F6D8FD758153020A0135
:100CEA0020202020202020202020202020202020FA
:100CFA0000593A0025202020473A004C7800543AFF
:100D0A000043202020533A002520007365743A00DE
:080D1A002520200043202000E9
:100D8500014600014300014E32014F320150190165
:100D950051460144000145000347303000044A3004
:030DA500303000EB
:100ACF00E4F509F50A75900FE590640F6051AF904A
:100ADF00EF24F9601A24FC601124FE6008147012D0
:100AEF00750901800D750905800875090980037561
:100AFF00090D7590F0AF90EF2490601B24C0601229
:100B0F0024E0600924F07012E4F50A800D750A01E3
:100B1F008008750A028003750A03E590B4F0FBE5BF
:040B2F0009250AFF8B
:010B3300229F
:100BF900E4F509F509D2A57F887E13120DDBC2A49D
:100C09007F887E13120DDBD2A67F887E13120DDB3F
:100C1900C2A57F887E13120DDBD2A77F887E1312AF
:100C29000DDBC2A67F887E13120DDBD2A47F887EDE
:100C390013120DDBC2A77F887E13120DDB0509E5B0
:080C490009C3941440AFC2A3DB
:010C51002280
:100C5200E4F509F509D2A77F887E13120DDBC2A441
:100C62007F887E13120DDBD2A67F887E13120DDBE6
:100C7200C2A77F887E13120DDBD2A57F887E131256
:100C82000DDBC2A67F887E13120DDBD2A47F887E85
:100C920013120DDBC2A57F887E13120DDB0509E559
:080CA20009C3941440AFD2A372
:010CAA002227
:1007FE00E4F508120DFF438901758C3C758AB0D261
:10080E00A9D2AFD28C120ACF8F08E508B4011D759C
:10081E0044017BFF7A0C79EAE4FD7F01120DA97B7E
:10082E00FF7A0C79EAE4FD7F02120DA9E508B40205
:10083E001CE4F5447BFF7A0C79EAFD7F01120DA9C9
:10084E007BFF7A0C79EAE4FD7F02120DA9E546D30F
:10085E00954E500CE55395505006E5529551400873
:10086E0030A315120BF98010E543D3954F5003209A
:10087E00B60620A303120C52E54464017087E50806
:10088E00B40309E550C3946350020550E508B4045F
:10089E0009E550D3940040021550E508B40509E56A
:1008AE004EC394635002054EE508B40609E54ED3D7
:1008BE0094004002154EE508B40709E551C3946350
:1008CE0050020551E508B40809E551D394004002E1
:1008DE001551E508B40909E54FC394FF5002054FC1
:1008EE00E508640A6003020813E54FD39400500331
:0808FE00020813154F02081354
:03000B0002046B81
:10046B00C0E0C0F0C083C082C0D075D000C000C057
:0D047B0001C002C003C004C005C006C007D8
:10048800E545C3940A5005054502068C7545007F6D
:1004980001120B998F467F02120B998F43AF467E4C
:1004A800007C007D63120318EF7807CEC313CE13C8
:1004B800D8F9FFF546120906E54460030205AFE5E1
:1004C8004675F00A842430F547E54675F00A84E558
:1004D800F02430F5487BFF7A0C79FBE4FD7F0112AC
:1004E8000DA97B007A0079477D027F01120DA9E5ED
:1004F8004375F064842430F54AE54375F06484E577
:10050800F075F00A842430F54BE54375F00A84E56C
:10051800F02430F54C7BFF7A0C79FE7D047F0112C4
:100528000DA97B007A00794A7D0A7F01120DA97B0B
:10053800FF7A0D79057D0D7F01120DA9E55375F040
:100548000A842430F547E55375F00A84E5F0243031
:10055800F5487BFF7A0D7908E4FD7F02120DA97B2F
:10056800007A0079477D027F02120DA9E55275F0E5
:100578000A842430F547E55275F00A84E5F0243002
:10058800F5487BFF7A0D790B7D047F02120DA97B5C
:10059800007A0079477D0A7F02120DA97BFF7A0D48
:1005A80079127D0C020687E54E75F00A842430F531
:1005B80047E54E75F00A84E5F02430F5487BFF7A6C
:1005C8000D7915E4FD7F01120DA97B007A007947AA
:1005D8007D047F01120DA9E54F75F064842430F580
:1005E8004AE54F75F06484E5F075F00A842430F527
:1005F8004BE54F75F00A84E5F02430F54C7BFF7A23
:100608000D791A7D067F01120DA97B007A00794ABF
:100618007D097F01120DA97BFF7A0D79057D0C7F7D
:1006280001120DA9E55075F00A842430F547E5500C
:1006380075F00A84E5F02430F5487B007A007947A4
:100648007D047F02120DA9E55175F00A842430F566
:1006580047E55175F00A84E5F02430F5487BFF7AC8
:100668000D791E7D067F02120DA97B007A0079475D
:100678007D097F02120DA97BFF7A0D79127D0B7F10
:0A06880002120DA9758C3C758AB0B2
:10069200D007D006D005D004D003D002D001D000BC
:0B06A200D0D0D082D083D0F0D0E03266
:100B9900C2B5E4FEFD0000D2B30000D2B20000C22B
:100BA900B20000C2B30000D2B300D2B200C2B20098
:100BB900BF0102C2B3BF0202D2B300D2B200C2B2B5
:100BC90000D2B3E4FFEE25E0FED2B230B4010E004C
:100BD900C2B20FBF08EFE4FFEDC313FDD2B230B4C8
:0F0BE900032480FD00C2B20FBF08EDD2B5AF06E6
:010BF80022DA
:100DCA00C2A18F807F147E00120DDBD2A27F147E17
:010DDA000018
:0B0DDB00EF1FAC0670011E4C70F622EA
:0A0E2600C2A2C2A0120DCAC2A2228D
:0A0E3000C2A2D2A0120DCAC2A22273
:100DA900EDBF01042480800224C0FF120E26120226
:100DB900CBFF600C120E30740129F9E43AFA80EE87
:010DC9002207
:100DFF007F38120E267F0C120E267F06120E267FCC
:060E0F00E87E03020DDB8A
:100D2200E4FE7D80EDD394004017ED5F6004D2B104
:100D32008002C2B1D2B0000000C2B0EDC313FD8088
:100D4200E3D2B1D2B0A2B1E433000000C2B0D2B15A
:010D5200FFA1
:010D5300227D
:100D5400E4FED2B17D80EDD394004010D2B030B126
:100D640003ED4206C2B0EDC313FD80EAEF24FFB3E6
:100D740092B1D2B0000000C2B0000000D2B1AF0600
:010D8400224C
:100DE600D2B1C2B000D2B000C2B100C2B0000000A1
:090DF600D2B000D2B100C2B0225B
:100E1500D2B1C2B0E4FFD2B0C2B00FBF09F8020D23
:010E2500E6E6
:060A46008B158A168917CA
:100A4C00E4F51CF51D120DE6E51B24FE6007047091
:100A5C00187F0380027F05120D22EF3395E0FEEF25
:100A6C00251DF51DEE351CF51C900000AF82AE83E4
:100A7C00E4FCFD7BFF7AFFF9F8D31203C340063088
:100A8C00B103A380E730B108051DE51D7002051CFC
:100A9C007F01120D54AB15AA16A917EF1202E47FB1
:100AAC0001120D54AB15AA16A917900001EF1202F2
:100ABC00F6E4FF120D54AB18AA19A91AEF1202E4AE
:020ACC00AF1D5C
:010ACE002205
:0606AD008B158A16891767
:1006B300E4F51EF51D751C80751BC075225475214C
:1006C300E3752025751F3D7526A27525E775243B27
:1006D3007523B6752A0A7529D775282375273C759E
:1006E3002EAC752DC5752CA7752B381203D98F32F7
:1006F3008E318D308C2FAB18AA19A91A1203D98FFA
:10070300368E358D348C337F0A7ED77D237C3CAB8C
:1007130036AA35A934A833120106E4FBFA79207806
:10072300C21200158F428E418D408C3FAF32AE31E5
:10073300AD30AC2FAB26AA25A924A823120106AB02
:1007430032AA31A930A82F120106C004C005C00681
:10075300C007AF32AE31AD30AC2FAB22AA21A920F6
:10076300A81F120106D003D002D001D00012001539
:10077300AB1EAA1DA91CA81B1200158F3A8E398D1A
:10078300388C37AF32AE31AD30AC2FAB2EAA2DA99A
:100793002CA82B120106AB2AAA29A928A8271200E4
:1007A30015C004C005C006C007E4FFFE7DC87CC1B8
:1007B300AB42AA41A940A83F120015D003D002D0F2
:1007C30001D000120106AB3AAA39A938A8371200A2
:1007D300158F3E8E3D8D3C8C3BAF42AE41AD40AC60
:1007E3003FAB18AA19A91A1203F9AF3EAE3DAD3CAF
:0B07F300AC3BAB15AA16A9170203F9D6
:100B3400C3EE648094805003E4FEFFD3EF94CAEEC6
:100B44006480948340047E037FCAD3EF94EBEE6405
:100B54008094804007740A2FFFE43EFED3EF942B69
:100B6400EE648094824007740A2FFFE43EFED3EFC4
:100B7400946BEE648094834007740A2FFFE43EFE76
:100B84007C037DE812037F7E007F0ACFCDCFCECCDD
:050B9400CE12037F22D8
:100CAB00D3EF94E7EE940340047E037FE7D3EF94F6
:100CBB00EAEE94014010EF94B7EE9403500874F6EB
:100CCB002FFF74FF3EFE7C037DE812032A7E007F1C
:0F0CDB000ACFCDCFCECCCE12032AEF2404FF22B6
:10090600E4F513F518751900751A14751B01FB7AB1
:1009160000790F120A46EF2513F51375180075199D
:1009260000751A14751B027B007A00790B120A46B1
:10093600EF2513F5136003020E15AC0BAD0CE41294
:1009460002118F0E8E0D8D0C8C0BAC0FAD10E412B8
:1009560002118F128E118D108C0F751800751900EB
:10096600751A0F7B007A00790B1206ADE4FFFE7D47
:10097600207C41AB12AA11A910A80F12010612027F
:100986004A120B348F53E4FFFE7D207C41AB0EAA46
:100996000DA90CA80B120106E4FBFA794878C212DD
:1009A600001512024AAB07AA06120CAB8F52EB1BBC
:0309B60070011AB3
:0109B900221B
:10000E000202B6E86480F8E933E83360110460F068
:10001E00ED33EC337009E8FCE9FDEAFEEBFF220458
:10002E0060DED3EB9FEA9EE99DE8C2E78CF0C2F753
:10003E0095F0400CE8CCF8E9CDF9EACEFAEBCFFB1F
:10004E0012028185D0F05804700320D5B3E80470F5
:10005E00075002B2D50202C092D5EC0460F7E4CC90
:10006E00C0E0C398F8603B94186008400DD0E0FBE8
:10007E00020298E4FBFAC9FC8028E830E406E4C9E1
:10008E00FBE4CAFCE830E305E4C9CACBFCE854073C
:10009E006010F8C3E913F9EA13FAEB13FBEC13FC47
:1000AE00D8F130F52FC3E49CFCEF9BFFEE9AFEEDEA
:1000BE0099FDD0E0FBEF4E4D4C701222DB03020295
:1000CE00BDEC2CFCEF33FFEE33FEED33FDED30E7F0
:1000DE00EB020298EF2BFFEE3AFEED39FDD0E0FB7E
:1000EE0050130BBB00030202C0ED13FDEE13FEEF27
:0800FE0013FFEC13FC02029851
:10010600EC4D6011E8497017ED33EC3304600DE4F3
:10011600FCFFFEFD22E933E8330470F80202B61252
:10012600028158046009E4CC248150062850090253
:1001360002C02840030202BDC0E0EB4A7044B98009
:1001460006D0E0FB0202ACEF4E701CBD8008EBFF50
:10015600EAFEE9FD80EBE98DF0A4FEE5F00201EF91
:10016600E9CDF9EAFEEBFFEF89F0A4FCE5F0CE89D4
:10017600F0A42EFFE435F0CD89F0A42DFEE435F091
:100186008067EF4E7005BD80D780C3EF8BF0A4ACBF
:10019600F0EE8BF0A42CFCE435F0F8EF8AF0A42CFA
:1001A600E5F038FCE433CB8DF0A42CFCE5F03BF80D
:1001B600EE8AF0A42CFCE5F038F8E433CF89F0A4FD
:1001C6002CFCE5F038CF3400CE89F0A42FFFE5F003
:1001D6003EFEE433C98DF0A42EFEE5F039CD8AF05B
:1001E600A42FFFE5F03EFEE43DFD33D0E0FB5007D3
:1001F6000BBB000F0202C0EC2CFCEF33FFEE33FE0C
:06020600ED33FD02029839
:10020C0075F020800E75F010800575F0087D007E6D
:10021C00007F003392D530D5031203B5EC33401078
:10022C00EF33FFEE33FEED33FDEC33FCD5F0ED2276
:0E023C00E5F0247EA2D513CC92E7CDCEFF22B2
:10024A00EDD2E7CD33EC3392D524814006E4FFFEAC
:10025A00FDFC22FCE4CFCECDCC24E0501174FF800B
:10026A00EDC3CC13CCCD13CDCE13CECF13CF0470A8
:07027A00F030D5DE0203B5F0
:10028100E9D2E7C933E833F892D5EDD2E7CD33ECC3
:0702910033FC5002B2D5223C
:10029800EC30E7100FBF000C0EBE00080DBD0004C7
:1002A8000BEB6014A2D5EB13FCED92E7FD2274FF73
:1002B800FCFDFEFF22E480F8A2D574FF13FC7D80CC
:0302C800E480EFE0
:1009C6000207FEE493A3F8E493A34003F68001F242
:1009D60008DFF48029E493A3F85407240CC8C33332
:1009E600C4540F4420C8834004F456800146F6DF01
:1009F600E4800B0102040810204080900D85E47EFF
:100A0600019360BCA3FF543F30E509541FFEE493F5
:100A1600A360010ECF54C025E060A840B8E493A3BC
:100A2600FAE493A3F8E493A3C8C582C8CAC583CAE7
:100A3600F0A3C8C582C8CAC583CADFE9DEE780BE9F
:010DA800004A
:1002CB00BB010689828A83E0225002E722BBFE0231
:0902DB00E32289828A83E4932264
:1002E400BB010689828A83F0225002F722BBFE01F9
:0202F400F322F3
:1002F600F8BB010DE58229F582E5833AF583E8F03E
:10030600225006E92582C8F622BBFE05E92582C8E9
:02031600F222D1
:10031800EF8DF0A4A8F0CF8CF0A428CE8DF0A42EF9
:02032800FE22B3
:10032A00BC000BBE0029EF8DF084FFADF022E4CCB7
:10033A00F875F008EF2FFFEE33FEEC33FCEE9DEC80
:10034A00984005FCEE9DFE0FD5F0E9E4CEFD22EDC6
:10035A00F8F5F0EE8420D21CFEADF075F008EF2F10
:10036A00FFED33FD4007985006D5F0F222C398FD01
:05037A000FD5F0EA229E
:10037F00C2D5EC30E709B2D5E4C39DFDE49CFCEE99
:10038F0030E715B2D5E4C39FFFE49EFE12032AC3E4
:10039F00E49DFDE49CFC800312032A30D507C3E4DF
:0603AF009FFFE49EFE2208
:0E03B500C3E49FFFE49EFEE49DFDE49CFC2259
:1003C300EB9FF5F0EA9E42F0E99D42F0EC6480C8B1
:0603D30064809845F02251
:1003D900BB010789828A8302041F5005E9F80204D8
:1003E90013BBFE05E9F802042B89828A83020437CC
:1003F900BB010789828A830204535005E9F8020484
:0A04090047BBFE05E9F802045F227C
:0C041300E6FC08E6FD08E6FE08E6FF2215
:0C041F00E0FCA3E0FDA3E0FEA3E0FF2250
:0C042B00E2FC08E2FD08E2FE08E2FF220D
:10043700E493FC740193FD740293FE740393FF220B
:0C044700ECF608EDF608EEF608EFF622E1
:0C045300ECF0A3EDF0A3EEF0A3EFF0221C
:0C045F00ECF208EDF208EEF208EFF222D9
:00000001FF
